:020000040800F2
:1000000000000120050300080B030008110300088D
:1000100033030008390300085B03000800000000F8
:100020000000000000000000000000007D03000848
:100030008303000800000000890300088F03000804
:10004000AD030008AD030008AD030008AD030008D0
:10005000AD030008AD030008AD030008FD0500086E
:10006000AD030008AD030008AD030008AD030008B0
:10007000AD030008AD030008AD030008AD030008A0
:10008000AD030008AD030008AD0300080000000048
:10009000000000000000000000000000AD030008A8
:1000A000AD030008AD030008AD030008AD03000870
:1000B000AD030008AD030008AD030008AD03000860
:1000C000AD030008AD030008AD030008AD03000850
:1000D000AD030008AD030008AD03000800000000F8
:1000E000AD030008AD030008AD03000800000000E8
:1000F000000000000000000000000000AD03000848
:1001000000000000AD030008AD030008AD030008C7
:1001100000000000000000000000000000000000DF
:10012000AD030008AD030008AD030008AD030008EF
:10013000AD03000800000000000000000000000007
:10014000000000000000000000000000AD030008F7
:10015000AD030008AD030008AD030008AD030008BF
:10016000AD030008AD03000800000000000000001F
:10017000000000000000000000000000000000007F
:1001800000000000AD0300080000000000000000B7
:10019000AD03000880B596B000AF00F037F94F4BC3
:1001A0007B6524E07B6D1A1D7A651B683B647B6D63
:1001B0001A1D7A651B68FB637B6D1A1D7A651B68C7
:1001C000BB633B6C7B63FB6B3B63BB6BFB623B6B5F
:1001D000BB6207E07A6B131D7B63BB6A191DB962B2
:1001E00012681A60FA6ABB6A9A42F3D800BF7B6D44
:1001F0003B4A9342D6D33B4B3B651AE03B6D1A1DFD
:100200003A651B68BB643B6D1A1D3A651B687B64CD
:10021000BB6C7B627B6C3B627B6AFB6104E0FB69CD
:100220001A1DFA6100221A603A6AFB699A42F6D8EE
:1002300000BF3B6D2C4A9342E0D300F0F5F83A1D25
:1002400007F108031146184600F0CEF8274A284B5C
:10025000D31A9B103B610023FB6007E0244AFB6834
:1002600052F823309847FB680133FB603A69FB681A
:100270009A42F3DC1F4A204BD31A9B103B610023A8
:10028000FB6007E01C4AFB6852F823309847FB6884
:100290000133FB603A69FB689A42F3DC00BFBB683C
:1002A0007A681146184600F06BF9F864134A144B4B
:1002B000D31A9B10BB61BB697B6108E07B69013B82
:1002C0000F4A52F8233098477B69013B7B617B6979
:1002D000002BF3DC00BFF86C00F080F8B4030008DA
:1002E000CC030008CC030008DC030008DC03000892
:1002F000DC030008DC030008DC030008DC03000862
:10030000DC0300082548004700BF80B400AFFEE7CB
:100310001EF0040F0CBFEFF30880EFF30980714665
:100320001F4A104700BF80B483B000AF78603960C7
:10033000FEE780B400AFFEE71EF0040F0CBFEFF342
:100340000880EFF309807146164A104700BF80B459
:1003500083B000AF78603960FEE71EF0040F0CBF79
:10036000EFF30880EFF3098071460F4A104700BF92
:1003700080B483B000AF78603960FEE780B400AF2E
:10038000FEE780B400AFFEE780B400AFFEE780B4C4
:1003900000AF00BFBD4680BC70470000950100085B
:1003A000270300084F0300087103000880B400AF62
:0203B000FEE766
:1003B4009C08000800000020200000209C08000881
:1003C4000000001000000010200000202400002085
:0803D400000000100000001001
:1003DC0080B582B000AF786000F03CF880B483B098
:1003EC0000AF786039607B6801221A603B68034A71
:1003FC001A6000BF0C37BD4680BC7047000000205F
:10040C0080B500AF00F02AF8024B034A9A6000BF97
:10041C0080BD00BF00ED00E00000000880B500AF1B
:10042C0000F028F800BF80BD80B400AFBFF34F8F41
:10043C0000BF064BDB6803F4E0620449044B134332
:10044C00CB60BFF34F8F00BF00BFFDE700ED00E0B6
:10045C000400FA0580B500AFFFF7E6FF80B400AFEB
:10046C00034B4FF000629A6000BFBD4680BC7047E2
:10047C0000ED00E080B487B000AF00233B610023A7
:10048C007B610223FB600023BB6002237B60344B47
:10049C009B6803F00C033B613B69082B11D03B6953
:1004AC00082B44D83B69002B03D03B69042B04D0A8
:1004BC003DE02C4B2C4A1A603DE02A4B2B4A1A602B
:1004CC0039E0274B5B689B0D03F00103BB60244BA9
:1004DC005B6803F03F037B60BB68002B0CD0234AA6
:1004EC007B68B2FBF3F31E4A52689209C2F308020E
:1004FC0002FB03F37B610BE01B4A7B68B2FBF3F35B
:10050C00174A52689209C2F3080202FB03F37B619B
:10051C00134B5B681B0C03F0030301335B00FB60A4
:10052C007A69FB68B2FBF3F30E4A136003E00D4BE0
:10053C000D4A1A6000BF0A4B9B681B0903F00F039E
:10054C000B4AD35C3B61074B1A683B6922FA03F3F5
:10055C00044A136000BF1C37BD4680BC704700BF07
:10056C0000380240080000200024F40000127A0039
:10057C008C08000880B582B000AF00F069F800204C
:10058C0000F074F8012000F071F86E2000F06EF8A5
:10059C000123FB71002301220021412000F0E2F82D
:1005AC00022300220121422000F0DCF80E4BDB6814
:1005BC000D4A43F00203D3600C4B1B680B4A23F02B
:1005CC00F0031360094B1B68FA7912011146074AB4
:1005DC000B431360044B1B68034A43F00203136084
:1005EC00072000F097F8FEE7003C01400838014076
:1005FC0080B582B000AF00220021412000F014F938
:10060C0000237B6002E07B6801337B607B680E4AD1
:10061C009342F8DD01220021412000F005F900236E
:10062C003B6002E03B6801333B603B68064A934207
:10063C00F8DD064B5B69054A43F00203536100BFCA
:10064C000837BD4680BD00BF3F420F00003C014053
:10065C0080B400AF044B1B68034A43F001031360E2
:10066C0000BFBD4680BC70470038024080B485B0E6
:10067C0000AF0346FB71FB795B09FB73FB7903F05D
:10068C001F03BB73FB7B032B36D801A252F823F05C
:10069C00AD060008C3060008D9060008EF060008DE
:1006AC00184B1B68BA7B012101FA02F21146154A5C
:1006BC000B43136021E0144B1B68BA7B012101FA38
:1006CC0002F21146104A0B43136016E00F4B1B68E5
:1006DC00BA7B012101FA02F211460C4A0B4313605A
:1006EC000BE00B4B1B68BA7B012101FA02F211469D
:1006FC00074A0B43136000E000BF00BF1437BD4630
:10070C0080BC7047303802403438024040380240D8
:10071C004438024080B483B000AF0346FB71FB79D0
:10072C005B09DBB21A460E4B53F822301B68F97981
:10073C00FA795209D2B252018A1A012101FA02F253
:10074C001146FA795209D2B21046054A52F82020C5
:10075C000B43136000BF0C37BD4680BC704700BF15
:10076C000C00002090B486B000AF04460846114639
:10077C001A462346FB710346BB710B467B7113462D
:10078C003B71FB79413BFB75FB7D264A52F82330CC
:10079C003B613B7903F00103FB733B795B08BB7353
:1007AC003B691B68BA795200032101FA02F2D24369
:1007BC001A403B691A603B691B687979BA79520017
:1007CC0001FA02F21A433B691A603B695B68BA7919
:1007DC00012101FA02F2D2431A403B695A603B698B
:1007EC005B68F97BBA7901FA02F21A433B695A60E9
:1007FC003B69DB68BA795200032101FA02F2D24359
:10080C001A403B69DA603B69DB68B97BBA79520004
:10081C0001FA02F21A433B69DA6000BF1837BD4691
:10082C0090BC70471800002080B485B000AF034620
:10083C00FB710B46BB7113467B71FB79413BFB7320
:10084C00FB7B0E4A52F82330BB60BB685B69BA79FC
:10085C00012101FA02F2D2431A40BB685A61BB680B
:10086C005B697979BA7901FA02F21A43BB685A6169
:10087C0000BF1437BD4680BC704700BF1800002075
:10088C000000000000000000010203040607080934
:10089C0020000020000000000024F40000E100E033
:1008AC0004E100E008E100E0000002400004024026
:040000050800019559
:00000001FF
