:020000040800F2
:1000000000000120050300080B030008110300088D
:1000100033030008390300085B03000800000000F8
:100020000000000000000000000000007D03000848
:100030008303000800000000890300088F03000804
:10004000AD030008AD030008AD030008AD030008D0
:10005000AD030008AD030008AD030008AD030008C0
:10006000AD030008AD03000851090008AD03000806
:10007000AD030008AD030008AD030008AD030008A0
:10008000AD030008AD030008AD0300080000000048
:100090000000000000000000000000008D090008C2
:1000A000AD030008AD030008AD030008AD03000870
:1000B000AD030008AD030008AD030008AD03000860
:1000C000AD030008AD030008AD030008AD03000850
:1000D000AD030008AD030008AD03000800000000F8
:1000E000AD030008AD030008AD03000800000000E8
:1000F000000000000000000000000000AD03000848
:1001000000000000AD030008AD030008AD030008C7
:1001100000000000000000000000000000000000DF
:10012000AD030008AD030008AD030008AD030008EF
:10013000AD03000800000000000000000000000007
:10014000000000000000000000000000AD030008F7
:10015000AD030008AD030008AD030008AD030008BF
:10016000AD030008AD03000800000000000000001F
:10017000000000000000000000000000000000007F
:1001800000000000AD0300080000000000000000B7
:10019000AD03000880B596B000AF00F037F94F4BC3
:1001A0007B6524E07B6D1A1D7A651B683B647B6D63
:1001B0001A1D7A651B68FB637B6D1A1D7A651B68C7
:1001C000BB633B6C7B63FB6B3B63BB6BFB623B6B5F
:1001D000BB6207E07A6B131D7B63BB6A191DB962B2
:1001E00012681A60FA6ABB6A9A42F3D800BF7B6D44
:1001F0003B4A9342D6D33B4B3B651AE03B6D1A1DFD
:100200003A651B68BB643B6D1A1D3A651B687B64CD
:10021000BB6C7B627B6C3B627B6AFB6104E0FB69CD
:100220001A1DFA6100221A603A6AFB699A42F6D8EE
:1002300000BF3B6D2C4A9342E0D300F0F5F83A1D25
:1002400007F108031146184600F0CEF8274A284B5C
:10025000D31A9B103B610023FB6007E0244AFB6834
:1002600052F823309847FB680133FB603A69FB681A
:100270009A42F3DC1F4A204BD31A9B103B610023A8
:10028000FB6007E01C4AFB6852F823309847FB6884
:100290000133FB603A69FB689A42F3DC00BFBB683C
:1002A0007A681146184600F06BF9F864134A144B4B
:1002B000D31A9B10BB61BB697B6108E07B69013B82
:1002C0000F4A52F8233098477B69013B7B617B6979
:1002D000002BF3DC00BFF86C00F080F8B4030008DA
:1002E000CC030008CC030008DC030008DC03000892
:1002F000DC030008DC030008DC030008DC03000862
:10030000DC0300082548004700BF80B400AFFEE7CB
:100310001EF0040F0CBFEFF30880EFF30980714665
:100320001F4A104700BF80B483B000AF78603960C7
:10033000FEE780B400AFFEE71EF0040F0CBFEFF342
:100340000880EFF309807146164A104700BF80B459
:1003500083B000AF78603960FEE71EF0040F0CBF79
:10036000EFF30880EFF3098071460F4A104700BF92
:1003700080B483B000AF78603960FEE780B400AF2E
:10038000FEE780B400AFFEE780B400AFFEE780B4C4
:1003900000AF00BFBD4680BC70470000950100085B
:1003A000270300084F0300087103000880B400AF62
:0203B000FEE766
:1003B4007C0D000800000020200000207C0D0008B7
:1003C4000000001000000010200000202400002085
:0803D400000000100000001001
:1003DC0080B582B000AF786000F03CF880B483B098
:1003EC0000AF786039607B6801221A603B68034A71
:1003FC001A6000BF0C37BD4680BC7047000000205F
:10040C0080B500AF00F02AF8024B034A9A6000BF97
:10041C0080BD00BF00ED00E00000000880B500AF1B
:10042C0000F028F800BF80BD80B400AFBFF34F8F41
:10043C0000BF064BDB6803F4E0620449044B134332
:10044C00CB60BFF34F8F00BF00BFFDE700ED00E0B6
:10045C000400FA0580B500AFFFF7E6FF80B400AFEB
:10046C00034B4FF000629A6000BFBD4680BC7047E2
:10047C0000ED00E080B487B000AF00233B610023A7
:10048C007B610223FB600023BB6002237B60344B47
:10049C009B6803F00C033B613B69082B11D03B6953
:1004AC00082B44D83B69002B03D03B69042B04D0A8
:1004BC003DE02C4B2C4A1A603DE02A4B2B4A1A602B
:1004CC0039E0274B5B689B0D03F00103BB60244BA9
:1004DC005B6803F03F037B60BB68002B0CD0234AA6
:1004EC007B68B2FBF3F31E4A52689209C2F308020E
:1004FC0002FB03F37B610BE01B4A7B68B2FBF3F35B
:10050C00174A52689209C2F3080202FB03F37B619B
:10051C00134B5B681B0C03F0030301335B00FB60A4
:10052C007A69FB68B2FBF3F30E4A136003E00D4BE0
:10053C000D4A1A6000BF0A4B9B681B0903F00F039E
:10054C000B4AD35C3B61074B1A683B6922FA03F3F5
:10055C00044A136000BF1C37BD4680BC704700BF07
:10056C0000380240080000200024F40000127A0039
:10057C005C0D000880B582B000AF00F01FFA0020BF
:10058C0000F02AFA012000F027FA6E2000F024FA7D
:10059C00002301220021412000F09CFA00230122BB
:1005AC000121412000F096FA002301220221412072
:1005BC0000F090FA002301220321412000F08AFA76
:1005CC00002301220421412000F084FA002301229F
:1005DC000521412000F07EFA002301220621412052
:1005EC0000F078FA022300220421422000F072FA73
:1005FC00022300220921412000F06CFA6622092115
:10060C00412000F0F5FA66220421422000F0F0FAB5
:10061C00092000F087FB042000F084FBC74B1B78FB
:10062C00092B00F27F8101A252F823F06106000829
:10063C00A9060008F1060008390700088107000820
:10064C00C90700081108000859080008A10800088B
:10065C00E908000801220021412000F09DFA012246
:10066C000121412000F098FA01220221412000F0E2
:10067C0093FA01220321412000F08EFA0122042179
:10068C00412000F089FA01220521412000F084FA72
:10069C0000220621412000F07FFA44E100220021D3
:1006AC00412000F079FA01220121412000F074FA76
:1006BC0001220221412000F06FFA00220321412087
:1006CC0000F06AFA00220421412000F065FA0022B1
:1006DC000521412000F060FA00220621412000F0A3
:1006EC005BFA20E101220021412000F055FA0122A1
:1006FC000121412000F050FA00220221412000F09B
:10070C004BFA01220321412000F046FA0122042178
:10071C00412000F041FA00220521412000F03CFA72
:10072C0001220621412000F037FAFCE001220021D1
:10073C00412000F031FA01220121412000F02CFA75
:10074C0001220221412000F027FA0122032141203D
:10075C0000F022FA00220421412000F01DFA0022B0
:10076C000521412000F018FA01220621412000F059
:10077C0013FAD8E000220021412000F00DFA0122EA
:10078C000121412000F008FA01220221412000F051
:10079C0003FA00220321412000F0FEF9002204217B
:1007AC00412000F0F9F901220521412000F0F4F973
:1007BC0001220621412000F0EFF9B4E001220021D2
:1007CC00412000F0E9F900220121412000F0E4F978
:1007DC0001220221412000F0DFF9012203214120F6
:1007EC0000F0DAF900220421412000F0D5F90122B1
:1007FC000521412000F0D0F901220621412000F012
:10080C00CBF990E001220021412000F0C5F9002233
:10081C000121412000F0C0F901220221412000F009
:10082C00BBF901220321412000F0B6F90122042179
:10083C00412000F0B1F901220521412000F0ACF972
:10084C0001220621412000F0A7F96CE001220021D1
:10085C00412000F0A1F901220121412000F09CF976
:10086C0001220221412000F097F9002203214120AE
:10087C0000F092F900220421412000F08DF90022B1
:10088C000521412000F088F900220621412000F0CA
:10089C0083F948E001220021412000F07DF901227A
:1008AC000121412000F078F901220221412000F0C1
:1008BC0073F901220321412000F06EF90122042179
:1008CC00412000F069F901220521412000F064F972
:1008DC0001220621412000F05FF924E001220021D1
:1008EC00412000F059F901220121412000F054F976
:1008FC0001220221412000F04FF901220321412065
:10090C0000F04AF900220421412000F045F90122AF
:10091C000521412000F040F901220621412000F080
:10092C003BF900E000BF00237B6002E07B680133F1
:10093C007B607B68024A9342F8D96FE62100002065
:10094C003F420F0080B400AF0B4B1B78092B03D137
:10095C00094B00221A7005E0074B1B780133DAB201
:10096C00054B1A70054B5B69044A43F01003536145
:10097C0000BFBD4680BC704721000020003C0140F8
:10098C0080B400AF0B4B1B78002B03D1094B092211
:10099C001A7005E0074B1B78013BDAB2054B1A7055
:1009AC00054B5B69044A43F40073536100BFBD46B9
:1009BC0080BC704721000020003C014080B400AF97
:1009CC00044B1B68034A43F00103136000BFBD4690
:1009DC0080BC70470038024080B485B000AF03463D
:1009EC00FB71FB795B09FB73FB7903F01F03BB7392
:1009FC00FB7B032B36D801A252F823F0190A00080E
:100A0C002F0A0008450A00085B0A0008184B1B68EF
:100A1C00BA7B012101FA02F21146154A0B4313600D
:100A2C0021E0144B1B68BA7B012101FA02F211463A
:100A3C00104A0B43136016E00F4B1B68BA7B012165
:100A4C0001FA02F211460C4A0B4313600BE00B4BFC
:100A5C001B68BA7B012101FA02F21146074A0B43CB
:100A6C00136000E000BF00BF1437BD4680BC704768
:100A7C00303802403438024040380240443802409A
:100A8C0080B483B000AF0346FB71FB795F2B1AD89F
:100A9C00FB795B09DBB21A460D4B53F822301B680D
:100AAC00F979FA795209D2B252018A1A012101FA62
:100ABC0002F21146FA795209D2B21046044A52F89F
:100ACC0020200B43136000BF0C37BD4680BC704721
:100ADC000C00002090B486B000AF044608461146C6
:100AEC001A462346FB710346BB710B467B711346BA
:100AFC003B71FB79413BFB75FB7D264A52F8233059
:100B0C003B613B7903F00103FB733B795B08BB73DF
:100B1C003B691B68BA795200032101FA02F2D243F5
:100B2C001A403B691A603B691B687979BA795200A3
:100B3C0001FA02F21A433B691A603B695B68BA79A5
:100B4C00012101FA02F2D2431A403B695A603B6917
:100B5C005B68F97BBA7901FA02F21A433B695A6075
:100B6C003B69DB68BA795200032101FA02F2D243E5
:100B7C001A403B69DA603B69DB68B97BBA79520091
:100B8C0001FA02F21A433B69DA6000BF1837BD461E
:100B9C0090BC70471800002080B485B000AF0346AD
:100BAC00FB710B46BB7113467B71FB79413BFB73AD
:100BBC00FB7B0E4A52F82330BB60BB685B69BA7989
:100BCC00012101FA02F2D2431A40BB685A61BB6898
:100BDC005B697979BA7901FA02F21A43BB685A61F6
:100BEC0000BF1437BD4680BC704700BF1800002002
:100BFC0090B58BB000AF0346B9607A60FB737B682D
:100C0C00662B0AD1444BDB680121BA6801FA02F267
:100C1C001146414A0B43D36025E07B68722B0AD105
:100C2C003D4B9B680121BA6801FA02F211463A4A1F
:100C3C000B43936017E07B68384A934213D1364BD1
:100C4C00DB680121BA6801FA02F21146324A0B4301
:100C5C00D360314B9B680121BA6801FA02F211464C
:100C6C002D4A0B439360FB7B413B87F827302C4B81
:100C7C0007F114040FCB84E80F00BB689B089B00A2
:100C8C0028333B4453F8143C1A68BB6803F0030345
:100C9C009B000F2101FA03F3DB431946BB689B0849
:100CAC009B0028333B4453F8143C0A401A60BB6841
:100CBC009B089B0028333B4453F8143C1A6897F864
:100CCC002710BB6803F003039B0001FA03F31946DA
:100CDC00BB689B089B0028333B4453F8143C0A43E5
:100CEC001A60BB68042B05D8BB6806331846FFF79F
:100CFC00C7FE0CE0BB68092B03D81720FFF7C0FE1A
:100D0C0005E0BB680F2B02D82820FFF7B9FE00BF07
:100D1C002C37BD4690BD00BF003C014066267200DA
:100D2C006C0D000880B483B000AF7860074B1B6873
:100D3C0001217A6801FA02F21146044A0B4313604E
:100D4C0000BF0C37BD4680BC704700BF003C014063
:100D5C00000000000000000001020304060708095F
:100D6C00083801400C38014010380140143801405B
:100D7C0020000020000000000024F40000E100E04E
:100D8C0004E100E008E100E0000002400004024041
:040000050800019559
:00000001FF
