:020000040800F2
:1000000000000120050300080B030008110300088D
:1000100033030008390300085B03000800000000F8
:100020000000000000000000000000007D03000848
:100030008303000800000000890300088F03000804
:10004000AD030008AD030008AD030008AD030008D0
:10005000AD030008AD030008AD030008AD030008C0
:10006000AD030008AD030008AD030008AD030008B0
:10007000AD030008AD030008AD030008AD030008A0
:10008000AD030008AD030008AD0300080000000048
:10009000000000000000000000000000AD030008A8
:1000A000AD030008AD030008AD030008AD03000870
:1000B000AD030008AD030008AD030008AD03000860
:1000C000AD030008AD030008AD030008AD03000850
:1000D000AD030008AD030008AD03000800000000F8
:1000E000AD030008AD030008AD03000800000000E8
:1000F000000000000000000000000000AD03000848
:1001000000000000AD030008AD030008AD030008C7
:1001100000000000000000000000000000000000DF
:10012000AD030008AD030008AD030008AD030008EF
:10013000AD03000800000000000000000000000007
:10014000000000000000000000000000AD030008F7
:10015000AD030008AD030008AD030008AD030008BF
:10016000AD030008AD03000800000000000000001F
:10017000000000000000000000000000000000007F
:1001800000000000AD0300080000000000000000B7
:10019000AD03000880B596B000AF00F037F94F4BC3
:1001A0007B6524E07B6D1A1D7A651B683B647B6D63
:1001B0001A1D7A651B68FB637B6D1A1D7A651B68C7
:1001C000BB633B6C7B63FB6B3B63BB6BFB623B6B5F
:1001D000BB6207E07A6B131D7B63BB6A191DB962B2
:1001E00012681A60FA6ABB6A9A42F3D800BF7B6D44
:1001F0003B4A9342D6D33B4B3B651AE03B6D1A1DFD
:100200003A651B68BB643B6D1A1D3A651B687B64CD
:10021000BB6C7B627B6C3B627B6AFB6104E0FB69CD
:100220001A1DFA6100221A603A6AFB699A42F6D8EE
:1002300000BF3B6D2C4A9342E0D300F0F5F83A1D25
:1002400007F108031146184600F0CEF8274A284B5C
:10025000D31A9B103B610023FB6007E0244AFB6834
:1002600052F823309847FB680133FB603A69FB681A
:100270009A42F3DC1F4A204BD31A9B103B610023A8
:10028000FB6007E01C4AFB6852F823309847FB6884
:100290000133FB603A69FB689A42F3DC00BFBB683C
:1002A0007A681146184600F06BF9F864134A144B4B
:1002B000D31A9B10BB61BB697B6108E07B69013B82
:1002C0000F4A52F8233098477B69013B7B617B6979
:1002D000002BF3DC00BFF86C00F080F8B4030008DA
:1002E000CC030008CC030008DC030008DC03000892
:1002F000DC030008DC030008DC030008DC03000862
:10030000DC0300082548004700BF80B400AFFEE7CB
:100310001EF0040F0CBFEFF30880EFF30980714665
:100320001F4A104700BF80B483B000AF78603960C7
:10033000FEE780B400AFFEE71EF0040F0CBFEFF342
:100340000880EFF309807146164A104700BF80B459
:1003500083B000AF78603960FEE71EF0040F0CBF79
:10036000EFF30880EFF3098071460F4A104700BF92
:1003700080B483B000AF78603960FEE780B400AF2E
:10038000FEE780B400AFFEE780B400AFFEE780B4C4
:1003900000AF00BFBD4680BC70470000950100085B
:1003A000270300084F0300087103000880B400AF62
:0203B000FEE766
:1003B4006C11000800000020180000206C110008D7
:1003C4000000001000000010180000202800002089
:0803D400000000100000001001
:1003DC0080B582B000AF786000F03CF880B483B098
:1003EC0000AF786039607B6801221A603B68034A71
:1003FC001A6000BF0C37BD4680BC7047000000205F
:10040C0080B500AF00F02AF8024B034A9A6000BF97
:10041C0080BD00BF00ED00E00000000880B500AF1B
:10042C0000F028F800BF80BD80B400AFBFF34F8F41
:10043C0000BF064BDB6803F4E0620449044B134332
:10044C00CB60BFF34F8F00BF00BFFDE700ED00E0B6
:10045C000400FA0580B500AFFFF7E6FF80B400AFEB
:10046C00034B4FF000629A6000BFBD4680BC7047E2
:10047C0000ED00E080B487B000AF00233B610023A7
:10048C007B610223FB600023BB6002237B60344B47
:10049C009B6803F00C033B613B69082B11D03B6953
:1004AC00082B44D83B69002B03D03B69042B04D0A8
:1004BC003DE02C4B2C4A1A603DE02A4B2B4A1A602B
:1004CC0039E0274B5B689B0D03F00103BB60244BA9
:1004DC005B6803F03F037B60BB68002B0CD0234AA6
:1004EC007B68B2FBF3F31E4A52689209C2F308020E
:1004FC0002FB03F37B610BE01B4A7B68B2FBF3F35B
:10050C00174A52689209C2F3080202FB03F37B619B
:10051C00134B5B681B0C03F0030301335B00FB60A4
:10052C007A69FB68B2FBF3F30E4A136003E00D4BE0
:10053C000D4A1A6000BF0A4B9B681B0903F00F039E
:10054C000B4AD35C3B61074B1A683B6922FA03F3F5
:10055C00044A136000BF1C37BD4680BC704700BF07
:10056C0000380240080000200024F40000127A0039
:10057C005C11000880B582B000AF00F0B9F9002022
:10058C0000F0C4F9012000F0C1F900F013FA0023C7
:10059C007B6000237B6009E07B68D9B200230122D9
:1005AC00412000F0B5FA7B6801337B607B68062B39
:1005BC00F2D900F02DFA00233B6002E03B680133D6
:1005CC003B603B6842F20F729342F7D9F1E70000AF
:1005DC0080B582B000AF00F091FA03467B607B6877
:1005EC00092B00F27F8101A252F823F021060008AA
:1005FC0069060008B1060008F90600084107000862
:10060C0089070008D10700081908000861080008CC
:10061C00A908000801220021412000F03BFC012226
:10062C000121412000F036FC01220221412000F082
:10063C0031FC01220321412000F02CFC0122042179
:10064C00412000F027FC01220521412000F022FC72
:10065C0000220621412000F01DFC44E10022002173
:10066C00412000F017FC01220121412000F012FC76
:10067C0001220221412000F00DFC00220321412027
:10068C0000F008FC00220421412000F003FC0022B1
:10069C000521412000F0FEFB00220621412000F044
:1006AC00F9FB20E101220021412000F0F3FB0122A3
:1006BC000121412000F0EEFB00220221412000F03C
:1006CC00E9FB01220321412000F0E4FB012204217B
:1006DC00412000F0DFFB00220521412000F0DAFB75
:1006EC0001220621412000F0D5FBFCE00122002173
:1006FC00412000F0CFFB01220121412000F0CAFB78
:10070C0001220221412000F0C5FB012203214120DE
:10071C0000F0C0FB00220421412000F0BBFB0022B2
:10072C000521412000F0B6FB01220621412000F0FA
:10073C00B1FBD8E000220021412000F0ABFB0122EC
:10074C000121412000F0A6FB01220221412000F0F2
:10075C00A1FB00220321412000F09CFB002204217C
:10076C00412000F097FB01220521412000F092FB73
:10077C0001220621412000F08DFBB4E00122002172
:10078C00412000F087FB00220121412000F082FB78
:10079C0001220221412000F07DFB01220321412096
:1007AC0000F078FB00220421412000F073FB0122B1
:1007BC000521412000F06EFB01220621412000F0B2
:1007CC0069FB90E001220021412000F063FB002234
:1007DC000121412000F05EFB01220221412000F0AA
:1007EC0059FB01220321412000F054FB012204217A
:1007FC00412000F04FFB01220521412000F04AFB73
:10080C0001220621412000F045FB6CE00122002171
:10081C00412000F03FFB01220121412000F03AFB76
:10082C0001220221412000F035FB0022032141204E
:10083C0000F030FB00220421412000F02BFB0022B1
:10084C000521412000F026FB00220621412000F06A
:10085C0021FB48E001220021412000F01BFB01227A
:10086C000121412000F016FB01220221412000F061
:10087C0011FB01220321412000F00CFB0122042179
:10088C00412000F007FB01220521412000F002FB72
:10089C0001220621412000F0FDFA24E00122002172
:1008AC00412000F0F7FA01220121412000F0F2FA78
:1008BC0001220221412000F0EDFA00220321412007
:1008CC0000F0E8FA00220421412000F0E3FA0122B2
:1008DC000521412000F0DEFA01220621412000F022
:1008EC00D9FA00E000BF00BF0837BD4680BD00BF8D
:1008FC0080B400AF044B1B68034A43F00103136040
:10090C0000BFBD4680BC70470038024080B485B043
:10091C0000AF0346FB71FB795B09FB73FB7903F0BA
:10092C001F03BB73FB7B032B36D801A252F823F0B9
:10093C004D09000863090008790900088F090008AF
:10094C00184B1B68BA7B012101FA02F21146154AB9
:10095C000B43136021E0144B1B68BA7B012101FA95
:10096C0002F21146104A0B43136016E00F4B1B6842
:10097C00BA7B012101FA02F211460C4A0B431360B7
:10098C000BE00B4B1B68BA7B012101FA02F21146FA
:10099C00074A0B43136000E000BF00BF1437BD468D
:1009AC0080BC704730380240343802404038024036
:1009BC004438024080B582B000AF0023FB710523A0
:1009CC00FB710EE0F97900230122422000F0A0F81F
:1009DC00FB7901221946422000F05CFAFB790133C5
:1009EC00FB71FB79082BEDD90023FB7108E0F97939
:1009FC0001230022422000F08BF8FB790133FB71BC
:100A0C00FB79022BF3D900BF00BF0837BD4680BD70
:100A1C0090B585B000AF0523FB7361E0FB7B002232
:100A2C001946422000F036FA0023BB734CE0BB7B26
:100A3C001946422000F02EFB0346FB710023BB60DD
:100A4C0002E0BB680133BB60BB6840F6B73293422F
:100A5C00F7D9BB7B1946422000F01CFB0346BB7147
:100A6C00FA79BB799A421BD1FA7BB97B20481346A1
:100A7C005B00134403440B441B78002B10D0BB7950
:100A8C00002B0DD0FB7B5A1FB97B1A4813465B0019
:100A9C00134403440B441A78174B1A70FFF798FD54
:100AAC00BB79002B0CBF01230023DBB2FA7BB97B93
:100ABC001C460F4813465B00134403440B44224668
:100ACC001A70BB7B0133BB73BB7B022BAFD9FB7B97
:100ADC0001221946422000F0DDF9FB7B0133FB7348
:100AEC00FB7B082B9AD900BF00BF1437BD4690BDC5
:100AFC001C0000200C0000201900002080B400AF66
:100B0C00024B1B781846BD4680BC7047190000206C
:100B1C0090B482B000AF0446084611461A462346EC
:100B2C00FB710346BB710B467B7113463B71FB7922
:100B3C00413B042B00F2978101A252F823F000BF35
:100B4C00610B0008F50B0008890C00081D0D00084E
:100B5C00E10D0008934B1B68BA795200032101FA8E
:100B6C0002F2D24311468F4A0B4013608D4B1B6827
:100B7C007979BA79520001FA02F21146894A0B438B
:100B8C0013607B79012B15D1874B1B68BA79012136
:100B9C0001FA02F2D2431146834A0B401360824B96
:100BAC001B683979BA7901FA02F211467E4A0B4375
:100BBC0013605AE17B79002B40F057817B4B1B680B
:100BCC00BA79032101FA02F2D2431146774A0B405B
:100BDC001360764B1B683979BA7901FA02F2114627
:100BEC00724A0B43136040E1714B1B68BA79520097
:100BFC00032101FA02F2D24311466D4A0B401360F5
:100C0C006B4B1B687979BA79520001FA02F21146E2
:100C1C00674A0B4313607B79012B15D1654B1B681D
:100C2C00BA79032101FA02F2D2431146614A0B4010
:100C3C001360604B1B683979BA7901FA02F21146DC
:100C4C005C4A0B43136012E17B79002B40F00F815F
:100C5C00594B1B68BA79012101FA02F2D2431146B1
:100C6C00554A0B401360544B1B683979BA7901FA19
:100C7C0002F21146504A0B431360F8E04F4B1B68CD
:100C8C00BA795200032101FA02F2D24311464B4ABF
:100C9C000B401360494B1B687979BA79520001FA01
:100CAC0002F21146454A0B4313607B79012B15D197
:100CBC00434B1B68BA79032101FA02F2D243114665
:100CCC003F4A0B4013603E4B1B683979BA7901FAE5
:100CDC0002F211463A4A0B431360CAE07B79002BAF
:100CEC0040F0C780374B1B68BA79012101FA02F238
:100CFC00D2431146334A0B401360324B1B6839798F
:100D0C00BA7901FA02F211462E4A0B431360B0E095
:100D1C002D4B1B68BA795200032101FA02F2D2431F
:100D2C001146294A0B401360274B1B687979BA7915
:100D3C00520001FA02F21146234A0B4313607B79ED
:100D4C00012B15D1214B1B68BA79032101FA02F250
:100D5C00D24311461D4A0B4013601C4B1B6839795A
:100D6C00BA7901FA02F21146184A0B43136082E079
:100D7C007B79002B7FD1164B1B68BA79012101FAC4
:100D8C0002F2D2431146124A0B401360104B1B68FF
:100D9C003979BA7901FA02F211460D4A0B43136004
:100DAC0069E000BF00000240040002400C00024059
:100DBC0000040240040402400C04024000080240FB
:100DCC00040802400C080240000C0240040C0240D3
:100DDC000C0C02402C4B1B68BA795200032101FA0F
:100DEC0002F2D2431146284A0B401360264B1B6873
:100DFC007979BA79520001FA02F21146224A0B4370
:100E0C0013607B79012B15D1204B1B68BA79032118
:100E1C0001FA02F2D24311461C4A0B4013601B4BE1
:100E2C001B683979BA7901FA02F21146174A0B4359
:100E3C00136022E07B79002B1FD1154B1B68BA790C
:100E4C00012101FA02F2D2431146114A0B40136000
:100E5C000F4B1B683979BA7901FA02F211460C4A28
:100E6C000B43136009E000BF08E000BF06E000BFC1
:100E7C0004E000BF02E000BF00E000BF00BF083785
:100E8C00BD4690BC704700BF0010024004100240E9
:100E9C000C10024080B485B000AF0346FB710B46CA
:100EAC00BB7113467B71FB79413B042B00F2CE8066
:100EBC0001A252F823F000BFD90E0008270F00083A
:100ECC00750F0008C10F00080D100008674B1B6858
:100EDC00BA795200032101FA02F21A40BB795B0085
:100EEC0022FA03F3FB73FB7B012B40F0B180604BC8
:100EFC001B68BA79012101FA02F2D24311465C4A0D
:100F0C000B4013605A4B1B687979BA7901FA02F2DB
:100F1C001146574A0B4313609AE0564B1B68BA793B
:100F2C005200032101FA02F21A40BB795B0022FA4B
:100F3C0003F3FB73FB7B012B40F08C804E4B1B6847
:100F4C00BA79012101FA02F2D24311464A4A0B4006
:100F5C001360494B1B687979BA7901FA02F2114690
:100F6C00454A0B43136075E0444B1B68BA79520039
:100F7C00032101FA02F21A40BB795B0022FA03F357
:100F8C00FB73FB7B012B67D13D4B1B68BA790121AD
:100F9C0001FA02F2D2431146394A0B401360384B26
:100FAC001B687979BA7901FA02F21146344A0B437B
:100FBC00136051E0334B1B68BA795200032101FADC
:100FCC0002F21A40BB795B0022FA03F3FB73FB7B42
:100FDC00012B43D12C4B1B68BA79012101FA02F287
:100FEC00D2431146284A0B401360274B1B68797972
:100FFC00BA7901FA02F21146234A0B4313602DE031
:10100C00224B1B68BA795200032101FA02F21A40F2
:10101C00BB795B0022FA03F3FB73FB7B012B1FD123
:10102C001B4B1B68BA79012101FA02F2D24311461B
:10103C00174A0B401360164B1B687979BA7901FA81
:10104C0002F21146124A0B43136009E000BF08E09C
:10105C0000BF06E000BF04E000BF02E000BF00E0FC
:10106C0000BF00BF1437BD4680BC70470000024073
:10107C001400024000040240140402400008024024
:10108C0014080240000C0240140C024000100240F4
:10109C001410024080B485B000AF03460A46FB71C1
:1010AC001346BB71FB79413B042B3FD801A252F88C
:1010BC0023F000BFD5100008E9100008FD1000084F
:1010CC0011110008251100081C4B1A68BB7922FA73
:1010DC0003F3DBB203F00103FB7328E0184B1A682F
:1010EC00BB7922FA03F3DBB203F00103FB731EE0BE
:1010FC00144B1A68BB7922FA03F3DBB203F0010339
:10110C00FB7314E0104B1A68BB7922FA03F3DBB2C1
:10111C0003F00103FB730AE00C4B1A68BB7922FA4B
:10112C0003F3DBB203F00103FB7300E000BFFB7BB6
:10113C0018461437BD4680BC704700BF10000240F3
:10114C001004024010080240100C02401010024023
:10115C00000000000000000001020304060708095B
:10116C0018000020000000000024F4000102030419
:08117C00050607080900000048
:040000050800019559
:00000001FF
