:020000040800F2
:1000000000000120050300080B030008110300088D
:1000100033030008390300085B03000800000000F8
:100020000000000000000000000000007D03000848
:100030008303000800000000890300088F03000804
:10004000AD030008AD030008AD030008AD030008D0
:10005000AD030008AD030008AD030008AD030008C0
:10006000AD030008AD030008AD030008AD030008B0
:10007000AD030008AD030008AD030008AD030008A0
:10008000AD030008AD030008AD0300080000000048
:10009000000000000000000000000000AD030008A8
:1000A000AD030008AD030008AD030008AD03000870
:1000B000AD030008AD030008AD030008AD03000860
:1000C000AD030008AD030008AD030008AD03000850
:1000D000AD030008AD030008AD03000800000000F8
:1000E000AD030008AD030008AD03000800000000E8
:1000F000000000000000000000000000AD03000848
:1001000000000000AD030008AD030008AD030008C7
:1001100000000000000000000000000000000000DF
:10012000AD030008AD030008AD030008AD030008EF
:10013000AD03000800000000000000000000000007
:10014000000000000000000000000000AD030008F7
:10015000AD030008AD030008AD030008AD030008BF
:10016000AD030008AD03000800000000000000001F
:10017000000000000000000000000000000000007F
:1001800000000000AD0300080000000000000000B7
:10019000AD03000880B596B000AF00F037F94F4BC3
:1001A0007B6524E07B6D1A1D7A651B683B647B6D63
:1001B0001A1D7A651B68FB637B6D1A1D7A651B68C7
:1001C000BB633B6C7B63FB6B3B63BB6BFB623B6B5F
:1001D000BB6207E07A6B131D7B63BB6A191DB962B2
:1001E00012681A60FA6ABB6A9A42F3D800BF7B6D44
:1001F0003B4A9342D6D33B4B3B651AE03B6D1A1DFD
:100200003A651B68BB643B6D1A1D3A651B687B64CD
:10021000BB6C7B627B6C3B627B6AFB6104E0FB69CD
:100220001A1DFA6100221A603A6AFB699A42F6D8EE
:1002300000BF3B6D2C4A9342E0D300F0F5F83A1D25
:1002400007F108031146184600F0CEF8274A284B5C
:10025000D31A9B103B610023FB6007E0244AFB6834
:1002600052F823309847FB680133FB603A69FB681A
:100270009A42F3DC1F4A204BD31A9B103B610023A8
:10028000FB6007E01C4AFB6852F823309847FB6884
:100290000133FB603A69FB689A42F3DC00BFBB683C
:1002A0007A681146184600F06BF9F864134A144B4B
:1002B000D31A9B10BB61BB697B6108E07B69013B82
:1002C0000F4A52F8233098477B69013B7B617B6979
:1002D000002BF3DC00BFF86C00F080F8B4030008DA
:1002E000CC030008CC030008DC030008DC03000892
:1002F000DC030008DC030008DC030008DC03000862
:10030000DC0300082548004700BF80B400AFFEE7CB
:100310001EF0040F0CBFEFF30880EFF30980714665
:100320001F4A104700BF80B483B000AF78603960C7
:10033000FEE780B400AFFEE71EF0040F0CBFEFF342
:100340000880EFF309807146164A104700BF80B459
:1003500083B000AF78603960FEE71EF0040F0CBF79
:10036000EFF30880EFF3098071460F4A104700BF92
:1003700080B483B000AF78603960FEE780B400AF2E
:10038000FEE780B400AFFEE780B400AFFEE780B4C4
:1003900000AF00BFBD4680BC70470000950100085B
:1003A000270300084F0300087103000880B400AF62
:0203B000FEE766
:1003B400740E0008000000200C000020740E0008D9
:1003C40000000010000000100C00002010000020AD
:0803D400000000100000001001
:1003DC0080B582B000AF786000F03CF880B483B098
:1003EC0000AF786039607B6801221A603B68034A71
:1003FC001A6000BF0C37BD4680BC7047000000205F
:10040C0080B500AF00F02AF8024B034A9A6000BF97
:10041C0080BD00BF00ED00E00000000880B500AF1B
:10042C0000F028F800BF80BD80B400AFBFF34F8F41
:10043C0000BF064BDB6803F4E0620449044B134332
:10044C00CB60BFF34F8F00BF00BFFDE700ED00E0B6
:10045C000400FA0580B500AFFFF7E6FF80B400AFEB
:10046C00034B4FF000629A6000BFBD4680BC7047E2
:10047C0000ED00E080B487B000AF00233B610023A7
:10048C007B610223FB600023BB6002237B60344B47
:10049C009B6803F00C033B613B69082B11D03B6953
:1004AC00082B44D83B69002B03D03B69042B04D0A8
:1004BC003DE02C4B2C4A1A603DE02A4B2B4A1A602B
:1004CC0039E0274B5B689B0D03F00103BB60244BA9
:1004DC005B6803F03F037B60BB68002B0CD0234AA6
:1004EC007B68B2FBF3F31E4A52689209C2F308020E
:1004FC0002FB03F37B610BE01B4A7B68B2FBF3F35B
:10050C00174A52689209C2F3080202FB03F37B619B
:10051C00134B5B681B0C03F0030301335B00FB60A4
:10052C007A69FB68B2FBF3F30E4A136003E00D4BE0
:10053C000D4A1A6000BF0A4B9B681B0903F00F039E
:10054C000B4AD35C3B61074B1A683B6922FA03F3F5
:10055C00044A136000BF1C37BD4680BC704700BF07
:10056C0000380240080000200024F40000127A0039
:10057C00640E000880B584B000AF00F0EBF80120E9
:10058C0000F0F6F8012300220321422000F044F988
:10059C000523FB6009E0FB68D9B20023012242204D
:1005AC0000F03AF9FB680133FB60FB68072BF2D9CA
:1005BC000023FB720023BB720321422000F0EEFBF0
:1005CC0003467B7200237B6002E07B6801337B6017
:1005DC007B685F4A9342F8D97B7A002B40F0AE805F
:1005EC00BB7A002B40F0AA800123BB72FB7A072B4D
:1005FC0000F2A68001A252F823F000BF29060008E1
:10060C004D0600087106000895060008B90600089A
:10061C00DD06000801070008250700080123FB720E
:10062C0001220521422000F0B9FA012206214220C4
:10063C0000F0B4FA01220721422000F0AFFA80E06A
:10064C000223FB7201220521422000F0A7FA0122AD
:10065C000621422000F0A2FA00220721422000F0DD
:10066C009DFA6EE00323FB7201220521422000F06B
:10067C0095FA00220621422000F090FA0022072170
:10068C00422000F08BFA5CE00423FB72002205216F
:10069C00422000F083FA00220621422000F07EFA6C
:1006AC0000220721422000F079FA4AE00523FB7270
:1006BC0000220521422000F071FA0022062142207E
:1006CC0000F06CFA01220721422000F067FA38E0B2
:1006DC000623FB7200220521422000F05FFA012262
:1006EC000621422000F05AFA01220721422000F094
:1006FC0055FA26E00723FB7201220521422000F067
:10070C004DFA00220621422000F048FA012207216E
:10071C00422000F043FA14E00023FB720022052172
:10072C00422000F03BFA01220621422000F036FA6A
:10073C0000220721422000F031FA02E000BF00E065
:10074C0000BF7B7A002B3FF437AF0023BB7233E73B
:10075C007F38010080B400AF044B1B68034A43F0A0
:10076C000103136000BFBD4680BC704700380240D7
:10077C0080B485B000AF0346FB71FB795B09FB735A
:10078C00FB7903F01F03BB73FB7B032B36D801A251
:10079C0052F823F0B1070008C7070008DD0700086E
:1007AC00F3070008184B1B68BA7B012101FA02F20F
:1007BC001146154A0B43136021E0144B1B68BA7B9E
:1007CC00012101FA02F21146104A0B43136016E0A4
:1007DC000F4B1B68BA7B012101FA02F211460C4A3D
:1007EC000B4313600BE00B4B1B68BA7B012101FA26
:1007FC0002F21146074A0B43136000E000BF00BF32
:10080C001437BD4680BC7047303802403438024043
:10081C00403802404438024090B482B000AF0446E5
:10082C00084611461A462346FB710346BB710B461C
:10083C007B7113463B71FB79413B042B00F2978192
:10084C0001A252F823F000BF69080008FD08000857
:10085C0091090008250A0008E90A0008934B1B6857
:10086C00BA795200032101FA02F2D24311468F4A9F
:10087C000B4013608D4B1B687979BA79520001FAE1
:10088C0002F21146894A0B4313607B79012B15D177
:10089C00874B1B68BA79012101FA02F2D243114647
:1008AC00834A0B401360824B1B683979BA7901FA81
:1008BC0002F211467E4A0B4313605AE17B79002BFE
:1008CC0040F057817B4B1B68BA79032101FA02F285
:1008DC00D2431146774A0B401360764B1B6839792B
:1008EC00BA7901FA02F21146724A0B43136040E1E5
:1008FC00714B1B68BA795200032101FA02F2D24300
:10090C0011466D4A0B4013606B4B1B687979BA79B1
:10091C00520001FA02F21146674A0B4313607B79CD
:10092C00012B15D1654B1B68BA79032101FA02F230
:10093C00D2431146614A0B401360604B1B683979F6
:10094C00BA7901FA02F211465C4A0B43136012E1C8
:10095C007B79002B40F00F81594B1B68BA79012130
:10096C0001FA02F2D2431146554A0B401360544B24
:10097C001B683979BA7901FA02F21146504A0B43D5
:10098C001360F8E04F4B1B68BA795200032101FA4F
:10099C0002F2D24311464B4A0B401360494B1B6881
:1009AC007979BA79520001FA02F21146454A0B43A1
:1009BC0013607B79012B15D1434B1B68BA7903214A
:1009CC0001FA02F2D24311463F4A0B4013603E4BF0
:1009DC001B683979BA7901FA02F211463A4A0B438B
:1009EC001360CAE07B79002B40F0C780374B1B6843
:1009FC00BA79012101FA02F2D2431146334A0B4073
:100A0C001360324B1B683979BA7901FA02F211463C
:100A1C002E4A0B431360B0E02D4B1B68BA79520081
:100A2C00032101FA02F2D2431146294A0B4013600A
:100A3C00274B1B687979BA79520001FA02F21146F8
:100A4C00234A0B4313607B79012B15D1214B1B6877
:100A5C00BA79032101FA02F2D24311461D4A0B4026
:100A6C0013601C4B1B683979BA7901FA02F21146F2
:100A7C00184A0B43136082E07B79002B7FD1164B15
:100A8C001B68BA79012101FA02F2D2431146124ACB
:100A9C000B401360104B1B683979BA7901FA02F2DA
:100AAC0011460D4A0B43136069E000BF0000024081
:100ABC00040002400C000240000402400404024006
:100ACC000C04024000080240040802400C080240DA
:100ADC00000C0240040C02400C0C02402C4B1B6816
:100AEC00BA795200032101FA02F2D2431146284A84
:100AFC000B401360264B1B687979BA79520001FAC6
:100B0C0002F21146224A0B4313607B79012B15D15B
:100B1C00204B1B68BA79032101FA02F2D243114629
:100B2C001C4A0B4013601B4B1B683979BA7901FACC
:100B3C0002F21146174A0B43136022E07B79002B1B
:100B4C001FD1154B1B68BA79012101FA02F2D2436D
:100B5C001146114A0B4013600F4B1B683979BA7957
:100B6C0001FA02F211460C4A0B43136009E000BF74
:100B7C0008E000BF06E000BF04E000BF02E000BFD9
:100B8C0000E000BF00BF0837BD4690BC704700BFF7
:100B9C0000100240041002400C10024080B485B0DA
:100BAC0000AF0346FB710B46BB7113467B71FB799F
:100BBC00413B042B00F2CE8001A252F823F000BF7F
:100BCC00E10B00082F0C00087D0C0008C90C000874
:100BDC00150D0008674B1B68BA795200032101FA06
:100BEC0002F21A40BB795B0022FA03F3FB73FB7B26
:100BFC00012B40F0B180604B1B68BA79012101FADE
:100C0C0002F2D24311465C4A0B4013605A4B1B68EC
:100C1C007979BA7901FA02F21146574A0B431360FB
:100C2C009AE0564B1B68BA795200032101FA02F282
:100C3C001A40BB795B0022FA03F3FB73FB7B012B9D
:100C4C0040F08C804E4B1B68BA79012101FA02F2FC
:100C5C00D24311464A4A0B401360494B1B687979C1
:100C6C00BA7901FA02F21146454A0B43136075E05A
:100C7C00444B1B68BA795200032101FA02F21A4064
:100C8C00BB795B0022FA03F3FB73FB7B012B67D16F
:100C9C003D4B1B68BA79012101FA02F2D24311468D
:100CAC00394A0B401360384B1B687979BA7901FAD1
:100CBC0002F21146344A0B43136051E0334B1B686C
:100CCC00BA795200032101FA02F21A40BB795B0097
:100CDC0022FA03F3FB73FB7B012B43D12C4B1B68D8
:100CEC00BA79012101FA02F2D2431146284A0B408B
:100CFC001360274B1B687979BA7901FA02F2114615
:100D0C00234A0B4313602DE0224B1B68BA79520027
:100D1C00032101FA02F21A40BB795B0022FA03F3B9
:100D2C00FB73FB7B012B1FD11B4B1B68BA79012179
:100D3C0001FA02F2D2431146174A0B401360164BCC
:100D4C001B687979BA7901FA02F21146124A0B43FF
:100D5C00136009E000BF08E000BF06E000BF04E03C
:100D6C0000BF02E000BF00E000BF00BF1437BD466B
:100D7C0080BC704700000240140002400004024096
:100D8C00140402400008024014080240000C024007
:100D9C00140C0240001002401410024080B485B0C4
:100DAC0000AF03460A46FB711346BB71FB79413B0E
:100DBC00042B3FD801A252F823F000BFDD0D000830
:100DCC00F10D0008050E0008190E00082D0E000884
:100DDC001C4B1A68BB7922FA03F3DBB203F0010354
:100DEC00FB7328E0184B1A68BB7922FA03F3DBB2C9
:100DFC0003F00103FB731EE0144B1A68BB7922FA53
:100E0C0003F3DBB203F00103FB7314E0104B1A681D
:100E1C00BB7922FA03F3DBB203F00103FB730AE0A4
:100E2C000C4B1A68BB7922FA03F3DBB203F0010313
:100E3C00FB7300E000BF00BF18461437BD4680BCF2
:100E4C00704700BF1000024010040240100802401E
:100E5C00100C0240101002400000000000000000C6
:080E6C00010203040607080956
:0C0E74000C000020000000000024F4002E
:040000050800019559
:00000001FF
