:020000040800F2
:1000000000000120050300080B030008110300088D
:1000100033030008390300085B03000800000000F8
:100020000000000000000000000000007D03000848
:100030008303000800000000890300088F03000804
:10004000AD030008AD030008AD030008AD030008D0
:10005000AD030008AD030008AD030008AD030008C0
:10006000AD030008AD030008AD030008AD030008B0
:10007000AD030008AD030008AD030008AD030008A0
:10008000AD030008AD030008AD0300080000000048
:10009000000000000000000000000000AD030008A8
:1000A000AD030008AD030008AD030008AD03000870
:1000B000AD030008AD030008AD030008AD03000860
:1000C000AD030008AD030008AD030008AD03000850
:1000D000AD030008AD030008AD03000800000000F8
:1000E000AD030008AD030008AD03000800000000E8
:1000F000000000000000000000000000AD03000848
:1001000000000000AD030008AD030008AD030008C7
:1001100000000000000000000000000000000000DF
:10012000AD030008AD030008AD030008AD030008EF
:10013000AD03000800000000000000000000000007
:10014000000000000000000000000000AD030008F7
:10015000AD030008AD030008AD030008AD030008BF
:10016000AD030008AD03000800000000000000001F
:10017000000000000000000000000000000000007F
:1001800000000000AD0300080000000000000000B7
:10019000AD03000880B596B000AF00F037F94F4BC3
:1001A0007B6524E07B6D1A1D7A651B683B647B6D63
:1001B0001A1D7A651B68FB637B6D1A1D7A651B68C7
:1001C000BB633B6C7B63FB6B3B63BB6BFB623B6B5F
:1001D000BB6207E07A6B131D7B63BB6A191DB962B2
:1001E00012681A60FA6ABB6A9A42F3D800BF7B6D44
:1001F0003B4A9342D6D33B4B3B651AE03B6D1A1DFD
:100200003A651B68BB643B6D1A1D3A651B687B64CD
:10021000BB6C7B627B6C3B627B6AFB6104E0FB69CD
:100220001A1DFA6100221A603A6AFB699A42F6D8EE
:1002300000BF3B6D2C4A9342E0D300F0F5F83A1D25
:1002400007F108031146184600F0CEF8274A284B5C
:10025000D31A9B103B610023FB6007E0244AFB6834
:1002600052F823309847FB680133FB603A69FB681A
:100270009A42F3DC1F4A204BD31A9B103B610023A8
:10028000FB6007E01C4AFB6852F823309847FB6884
:100290000133FB603A69FB689A42F3DC00BFBB683C
:1002A0007A681146184600F06BF9F864134A144B4B
:1002B000D31A9B10BB61BB697B6108E07B69013B82
:1002C0000F4A52F8233098477B69013B7B617B6979
:1002D000002BF3DC00BFF86C00F080F8B4030008DA
:1002E000CC030008CC030008DC030008DC03000892
:1002F000DC030008DC030008DC030008DC03000862
:10030000DC0300082548004700BF80B400AFFEE7CB
:100310001EF0040F0CBFEFF30880EFF30980714665
:100320001F4A104700BF80B483B000AF78603960C7
:10033000FEE780B400AFFEE71EF0040F0CBFEFF342
:100340000880EFF309807146164A104700BF80B459
:1003500083B000AF78603960FEE71EF0040F0CBF79
:10036000EFF30880EFF3098071460F4A104700BF92
:1003700080B483B000AF78603960FEE780B400AF2E
:10038000FEE780B400AFFEE780B400AFFEE780B4C4
:1003900000AF00BFBD4680BC70470000950100085B
:1003A000270300084F0300087103000880B400AF62
:0203B000FEE766
:1003B4007C0B0008000000200C0000207C0B0008CF
:1003C40000000010000000100C00002010000020AD
:0803D400000000100000001001
:1003DC0080B582B000AF786000F03CF880B483B098
:1003EC0000AF786039607B6801221A603B68034A71
:1003FC001A6000BF0C37BD4680BC7047000000205F
:10040C0080B500AF00F02AF8024B034A9A6000BF97
:10041C0080BD00BF00ED00E00000000880B500AF1B
:10042C0000F028F800BF80BD80B400AFBFF34F8F41
:10043C0000BF064BDB6803F4E0620449044B134332
:10044C00CB60BFF34F8F00BF00BFFDE700ED00E0B6
:10045C000400FA0580B500AFFFF7E6FF80B400AFEB
:10046C00034B4FF000629A6000BFBD4680BC7047E2
:10047C0000ED00E080B487B000AF00233B610023A7
:10048C007B610223FB600023BB6002237B60344B47
:10049C009B6803F00C033B613B69082B11D03B6953
:1004AC00082B44D83B69002B03D03B69042B04D0A8
:1004BC003DE02C4B2C4A1A603DE02A4B2B4A1A602B
:1004CC0039E0274B5B689B0D03F00103BB60244BA9
:1004DC005B6803F03F037B60BB68002B0CD0234AA6
:1004EC007B68B2FBF3F31E4A52689209C2F308020E
:1004FC0002FB03F37B610BE01B4A7B68B2FBF3F35B
:10050C00174A52689209C2F3080202FB03F37B619B
:10051C00134B5B681B0C03F0030301335B00FB60A4
:10052C007A69FB68B2FBF3F30E4A136003E00D4BE0
:10053C000D4A1A6000BF0A4B9B681B0903F00F039E
:10054C000B4AD35C3B61074B1A683B6922FA03F3F5
:10055C00044A136000BF1C37BD4680BC704700BF07
:10056C0000380240080000200024F40000127A0039
:10057C006C0B000880B582B000AF00F0B1F9002020
:10058C0000F0BCF900237B6000237B6009E07B68F2
:10059C00D9B200230122412000F004FA7B68013318
:1005AC007B607B68062BF2D90023FB70FB78092B50
:1005BC0000F2808101A252F823F000BFF10500087F
:1005CC003906000881060008C90600081107000852
:1005DC0059070008A1070008E907000831080008BE
:1005EC007908000801220021412000F061FA012263
:1005FC000121412000F05CFA01220221412000F08F
:10060C0057FA01220321412000F052FA0122042161
:10061C00412000F04DFA01220521412000F048FA5A
:10062C0000220621412000F043FA43E10022002180
:10063C00412000F03DFA01220121412000F038FA5E
:10064C0001220221412000F033FA00220321412033
:10065C0000F02EFA00220421412000F029FA002299
:10066C000521412000F024FA00220621412000F04F
:10067C001FFA1FE101220021412000F019FA01228A
:10068C000121412000F014FA00220221412000F047
:10069C000FFA01220321412000F00AFA0122042161
:1006AC00412000F005FA00220521412000F000FA5B
:1006BC0001220621412000F0FBF9FBE00122002180
:1006CC00412000F0F5F901220121412000F0F0F960
:1006DC0001220221412000F0EBF9012203214120EB
:1006EC0000F0E6F900220421412000F0E1F900229B
:1006FC000521412000F0DCF901220621412000F007
:10070C00D7F9D7E000220021412000F0D1F90122D5
:10071C000121412000F0CCF901220221412000F0FE
:10072C00C7F900220321412000F0C2F90022042164
:10073C00412000F0BDF901220521412000F0B8F95B
:10074C0001220621412000F0B3F9B3E0012200217F
:10075C00412000F0ADF900220121412000F0A8F960
:10076C0001220221412000F0A3F9012203214120A2
:10077C0000F09EF900220421412000F099F9012299
:10078C000521412000F094F901220621412000F0BE
:10079C008FF98FE001220021412000F089F900221D
:1007AC000121412000F084F901220221412000F0B6
:1007BC007FF901220321412000F07AF90122042162
:1007CC00412000F075F901220521412000F070F95B
:1007DC0001220621412000F06BF96BE0012200217F
:1007EC00412000F065F901220121412000F060F95F
:1007FC0001220221412000F05BF90022032141205B
:10080C0000F056F900220421412000F051F9002299
:10081C000521412000F04CF900220621412000F076
:10082C0047F947E001220021412000F041F9012263
:10083C000121412000F03CF901220221412000F06D
:10084C0037F901220321412000F032F90122042161
:10085C00412000F02DF901220521412000F028F95A
:10086C0001220621412000F023F923E0012200217E
:10087C00412000F01DF901220121412000F018F95E
:10088C0001220221412000F013F900220321412012
:10089C0000F00EF900220421412000F009F9012298
:1008AC000521412000F004F901220621412000F02D
:1008BC00FFF800BF00237B6002E07B6801337B60A4
:1008CC007B68064A9342F8D9FB780133FB70FB78BE
:1008DC000A2B7FF46BAE0023FB7067E63F420F00E0
:1008EC0080B400AF044B1B68034A43F00103136050
:1008FC0000BFBD4680BC70470038024080B485B054
:10090C0000AF0346FB71FB795B09FB73FB7903F0CA
:10091C001F03BB73FB7B032B36D801A252F823F0C9
:10092C003D09000853090008690900087F090008FF
:10093C00184B1B68BA7B012101FA02F21146154AC9
:10094C000B43136021E0144B1B68BA7B012101FAA5
:10095C0002F21146104A0B43136016E00F4B1B6852
:10096C00BA7B012101FA02F211460C4A0B431360C7
:10097C000BE00B4B1B68BA7B012101FA02F211460A
:10098C00074A0B43136000E000BF00BF1437BD469D
:10099C0080BC704730380240343802404038024046
:1009AC004438024090B482B000AF04460846114669
:1009BC001A462346FB710346BB710B467B711346EB
:1009CC003B71FB79413B032B64D801A252F823F015
:1009DC00ED090008470A0008A10A0008A10A00084E
:1009EC002F4B1B68BA795200032101FA02F2D24351
:1009FC0011462B4A0B401360294B1B687979BA7945
:100A0C00520001FA02F21146254A0B431360254BA2
:100A1C001B68BA79012101FA02F2D2431146214A2C
:100A2C000B4013601F4B1B683979BA7901FA02F23B
:100A3C0011461C4A0B4313602DE01B4B1B68BA7903
:100A4C005200032101FA02F2D2431146164A0B401E
:100A5C001360154B1B687979BA79520001FA02F2CE
:100A6C001146114A0B431360104B1B68BA790121D4
:100A7C0001FA02F2D24311460C4A0B4013600B4BA5
:100A8C001B683979BA7901FA02F21146074A0B430D
:100A9C00136000E000BF00BF0837BD4690BC704734
:100AAC000000024004000240000402400404024022
:100ABC0080B485B000AF0346FB710B46BB71134687
:100ACC007B71244B1B68BA795200032101FA02F2A4
:100ADC001A40BB795B0022FA03F3FB73FB7B012BFF
:100AEC0031D1FB79412B02D0422B16D02CE01A4B82
:100AFC001B68BA79012101FA02F2D2431146164A57
:100B0C000B401360144B1B687979BA7901FA02F225
:100B1C001146114A0B43136016E0104B1B68BA794F
:100B2C00012101FA02F2D24311460C4A0B40136028
:100B3C000A4B1B687979BA7901FA02F21146074A15
:100B4C000B43136000E000BF00BF1437BD4680BCF0
:100B5C00704700BF00000240140002401404024021
:100B6C000000000000000000010203040607080951
:0C0B7C000C000020000000000024F40029
:040000050800019559
:00000001FF
